:100000000C9434000C9451000C9451000C94510049
:100010000C9451000C9451000C9451000C9451001C
:100020000C9451000C9451000C9451000C9451000C
:100030000C9451000C9453000C9451000C945100FA
:100040000C9451000C9451000C9451000C945100EC
:100050000C9451000C9451000C9451000C945100DC
:100060000C9451000C94510011241FBECFEFD8E026
:10007000DEBFCDBF11E0A0E0B1E0E0E6F2E002C0FB
:1000800005900D92A230B107D9F721E0A2E0B1E0CE
:1000900001C01D92A330B207E1F70E9482000C94C8
:1000A0002E010C9400008F938FB78F939F9380E065
:1000B0009FEF9093850080938400809102018823B4
:1000C00079F08091000190910101009749F08091B1
:1000D000000190910101019790930101809300012B
:1000E0009F918F918FBF8F911895B09A80E09FEF6D
:1000F00090938500809384001092800085E0809327
:10010000810008958FEF8AB987B914B895B185B980
:1001100080E09FEF90938500809384001092800090
:1001200085E08093810081E080936F0078940E9445
:10013000750018B8CCE3D0E04CE3EAE0F0E007E566
:1001400012E0992493948091000190910101BE01E5
:100150000E941A019B01C0900001D0900101469FAE
:100160005001479FB00C1124809100019091010132
:100170008A199B09BF010E941A017B01C6018A19D5
:100180009B09BF010E941A0154E0EE0CFF1C5A9516
:10019000E1F78E259F258BB9809100019091010197
:1001A000B9016F707727892B79F18091020188233B
:1001B00059F1606168B9189B19C087EA91E6019707
:1001C000F1F700C00000189911C0809100019091D2
:1001D00001010A96873592401CF5809100019091AB
:1001E00001010A969093010180930001199B1092DE
:1001F00002011A9B909202018091000190910101ED
:10020000892B99F0449A9FCF809100019091010130
:10021000892B21F080910201882361F26062CACFAC
:100220001093010100930001E1CF88B18F7088B96C
:10023000459A89CFAA1BBB1B51E107C0AA1FBB1F50
:10024000A617B70710F0A61BB70B881F991F5A9562
:10025000A9F780959095BC01CD010895F894FFCF42
:0202600001009B
:00000001FF
